:100000000C9470030C9498030C9498030C9498032C
:100010000C9498030C9498030C9498030C949803F4
:100020000C9498030C9498030C94DF050C940A0725
:100030000C9498030C9498030C9498030C949803D4
:100040000C9498030C9498030C9498030C949803C4
:100050000C9498030C9498030C9498030C948209C4
:100060000C9498030C9498030C9498030C949803A4
:100070000C9498030C9498030C9498030C94980394
:100080000C94D20A0C9498030C9498030C94980343
:100090000C9498030C9498030C9498030C94980374
:1000A0000C9498030C9498030C949803F0F89C8E8D
:1000B0008783878E9CF8F00000FEFF030303030391
:1000C000070EFCF80000FEFF0303030303070EFC0A
:1000D000F80000FFFF00000000000000FFFF00002C
:1000E000FEFF8383838383C7EE7C380000F8FC0E19
:1000F00007030303070EFCF800003F7FE0C0808089
:10010000C0E07F3FFFFF01010101010101FFFF008E
:1001100000FFFF0C0C0C0C1C3E77E3C100007FFFBE
:10012000C0C0C0C0C0E0703F1F00001F3F70E0C0F3
:10013000C0C0E0703F1F00007FFFC1C1C1C1C1E36B
:10014000773E1C00001F3F70E0C0C0C0E0703F1F42
:10015000000000000001FFFF01000000D5F08D98B5
:10016000A1C881CFD9F1AF2000080B000202020123
:10017000000904000001020200000524001001052E
:10018000240101010424020605240600010705815B
:100190000310004009040100020A000000070502E4
:1001A0000240000007058302400000040309041216
:1001B000010002EF020140412336800001010203E9
:1001C0000141726475696E6F204C4C43004172644A
:1001D00075696E6F204C656F6E6172646F00000010
:1001E0000000003E5B4F5B3E3E6B4F6B3E1C3E7C17
:1001F0003E1C183C7E3C181C577D571C1C5E7F5EC5
:100200001C00183C1800FFE7C3E7FF001824180083
:10021000FFE7DBE7FF30483A060E2629792926401A
:100220007F050507407F05253F5A3CE73C5A7F3E46
:100230001C1C08081C1C3E7F14227F22145F5F00D8
:100240005F5F06097F017F006689956A6060606074
:100250006094A2FFA29408047E040810207E20105F
:1002600008082A1C08081C2A08081E101010100C68
:100270001E0C1E0C30383E3830060E3E0E060000B6
:1002800000000000005F00000007000700147F145A
:100290007F14242A7F2A12231308646236495620C9
:1002A000500008070300001C2241000041221C00EE
:1002B0002A1C7F1C2A08083E0808008070300008AD
:1002C00008080808000060600020100804023E5181
:1002D00049453E00427F4000724949494621414913
:1002E0004D331814127F1027454545393C4A49497A
:1002F0003141211109073649494936464949291EE4
:1003000000001400000040340000000814224114D2
:1003100014141414004122140802015909063E4124
:100320005D594E7C1211127C7F494949363E41414C
:1003300041227F4141413E7F494949417F090909A5
:10034000013E414151737F0808087F00417F410011
:100350002040413F017F081422417F404040407FC0
:10036000021C027F7F0408107F3E4141413E7F090D
:100370000909063E4151215E7F091929462649494E
:10038000493203017F01033F4040403F1F2040208E
:100390001F3F4038403F631408146303047804038C
:1003A0006159494D43007F4141410204081020003A
:1003B0004141417F040201020440404040400003AB
:1003C00007080020545478407F2844443838444477
:1003D0004428384444287F385454541800087E096F
:1003E0000218A4A49C787F0804047800447D40008F
:1003F0002040403D007F1028440000417F40007CA9
:10040000047804787C080404783844444438FC18A0
:1004100024241818242418FC7C0804040848545484
:10042000542404043F44243C4040207C1C204020B1
:100430001C3C4030403C44281028444C9090907C18
:100440004464544C4400083641000000770000002A
:100450004136080002010204023C2623263C1EA16C
:10046000A161123A4040207A3854545559215555CB
:10047000794121545478412155547840205455797C
:10048000400C1E527212395555555939545454590D
:1004900039555454580000457C410002457D4200C6
:1004A00001457C40F0292429F0F0282528F07C54CF
:1004B0005545002054547C547C0A097F49324949EF
:1004C00049323248484832324A4848303A4141215C
:1004D0007A3A42402078009DA0A07D3944444439B6
:1004E0003D4040403D3C24FF2424487E4943662B48
:1004F0002FFC2F2BFF0929F620C0887E09032054EA
:100500005479410000447D413048484A32384040E7
:10051000227A007A0A0A727D0D19317D2629292F47
:1005200028262929292630484D402038080808085F
:1005300008080808382F10C8ACBA2F102834FA0061
:10054000007B000008142A142222142A14089500A3
:10055000220095AA005500AAAA55AA55AA00000093
:10056000FF00101010FF00141414FF001010FF0003
:10057000FF1010F010F0141414FC001414F700FF16
:100580000000FF00FF1414F404FC141417101F10D3
:10059000101F101F1414141F00101010F000000082
:1005A000001F101010101F10101010F0100000008D
:1005B000FF101010101010101010FF10000000FF9E
:1005C000140000FF00FF00001F10170000FC04F4DF
:1005D00014141710171414F404F40000FF00F71497
:1005E000141414141414F700F7141414171410101E
:1005F0001F101F141414F4141010F010F000001F3A
:10060000101F0000001F14000000FC140000F01078
:10061000F01010FF10FF141414FF141010101F001E
:10062000000000F010FFFFFFFFFFF0F0F0F0F0FF20
:10063000FFFF0000000000FFFF0F0F0F0F0F3844F7
:100640004438447C2A2A3E147E02020606027E02B8
:100650007E0263554941633844443C04407E201E79
:100660002006027E020299A5E7A5991C2A492A1CA8
:100670004C7201724C304A4D4D303048784830BC95
:10068000625A463D3E494949007E0101017E2A2ABF
:100690002A2A2A44445F444440514A444040444A40
:1006A00051400000FF0103E080FF000008086B6B71
:1006B000083612362436060F090F060000181800F7
:1006C00000001010003040FF0101001F01011E005A
:1006D000191D1712003C3C3C3C0000000000241295
:1006E00011241FBECFEFDAE0DEBFCDBF11E0A0E0E6
:1006F000B1E0E4E8F8E202C005900D92AE34B10733
:10070000D9F726E0AEE4B1E001C01D92AE37B207E2
:10071000E1F713E0C0E7D3E004C02197FE010E9497
:100720003514CF36D107C9F70E94580C0C944014E9
:100730000C94000020915101211103C08FEF9FEF15
:1007400008955FB7F89422E02093E9002091F20029
:1007500030E01216130614F421E030E0422FFC01C1
:1007600084E6415038F02898809350019091F10030
:100770009193F7CF2115310521F08091F200882364
:1007800019F05FBFC90108958BE68093E800F9CFA7
:100790002FB7F89483E08093E9009091E800892FC7
:1007A000807295FF04C09091F20080E4891B2FBFF6
:1007B0000895CF93DF931F92CDB7DEB76983DC0135
:1007C000ED91FC910280F381E02D41E050E0BE010B
:1007D0006F5F7F4F09950F90DF91CF91089583E070
:1007E0008093E9008091F200882319F08AE38093D6
:1007F000E80008950E94C80390E00895CF93DF9326
:100800001F92CDB7DEB7FC018485958597FD05C0A5
:100810002FEF3FEF358724870BC0CE0101960E9452
:100820009A03019719F4898190E002C08FEF9FEF3E
:100830000F90DF91CF9108950F931F93CF93DF9384
:100840001F92CDB7DEB78C01FC018485958597FF9B
:100850000EC0CE0101960E949A03019719F4898176
:1008600090E002C08FEF9FEFF80195878487F80131
:10087000848595850F90DF91CF911F910F910895F9
:10088000FC018485958597FD0BC09FB7F89482E0A5
:100890008093E9008091F2009FBF90E00196089557
:1008A0009FB7F89482E08093E9008091F2009FBFA7
:1008B00090E008958F929F92AF92BF92CF92DF9275
:1008C000EF92FF920F931F93CF93DF936C017B0105
:1008D0008A0180910701882309F45CC0809151014D
:1008E000882309F457C080914F0180FF05C0809193
:1008F000E00082608093E000E801B12C8AEFA82E2E
:1009000093E0892E2AE3922E209711F4BB20D9F18F
:100910000E94C80381110AC0AA94AA20D9F161E0FB
:1009200070E080E090E00E944809EECF282F30E090
:10093000C217D3070CF48C2F9FB7F8948092E9006C
:100940002091E80025FF1DC0282F30E0C21BD30BEB
:10095000F701815020F041914093F100FACFE20E6F
:10096000F31EBB2019F09092E8000AC08091E800C5
:1009700085FD07C09092E800BB24B394209709F04E
:10098000B12C9FBFC1CF5D9884E6809309061016F5
:10099000110644F081E090E0F6019383828380E0C9
:1009A00090E001C0C801DF91CF911F910F91FF909E
:1009B000EF90DF90CF90BF90AF909F908F90089571
:1009C0006115710579F0FB0101900020E9F731977D
:1009D000AF01461B570BDC01ED91FC910280F381C6
:1009E000E02D099480E090E008954F925F926F921D
:1009F0007F928F929F92AF92BF92CF92DF92EF92AF
:100A0000FF920F931F93CF93DF93CDB7DEB7A197DC
:100A10000FB6F894DEBF0FBECDBF8C016B01770F10
:100A2000EE08FF08F7FE2FC0DC01ED91FC9101906C
:100A3000F081E02D6DE209955C0122273327A901A1
:100A40002C193D094E095F0919A2FE01B1967F01DB
:100A50009AE0492E512C612C712CCA01B901A301D5
:100A600092010E94DC13605DD7016E937D01211518
:100A700031054105510589F7BD01C8010E94E00417
:100A80008A0D9B1D1EC0A701960119A2FE01B196F9
:100A90007F018AE0882E912CA12CB12CCA01B901CA
:100AA000A50194010E94DC13605DD7016E937D0166
:100AB000211531054105510589F7BD01C8010E9485
:100AC000E004A1960FB6F894DEBF0FBECDBFDF9154
:100AD000CF911F910F91FF90EF90DF90CF90BF903B
:100AE000AF909F908F907F906F905F904F90089500
:100AF0009C01E1E7F0E090819D7F90831092560584
:100B0000E1EEF5E0F0935505E0935405F0935305BD
:100B1000E0935205318320838EE190E093838283BA
:100B200080E090E8958384830C94260AEF92FF92EC
:100B30000F931F93CF93DF937C018B01040F111D43
:100B4000EB0177FF02C0C0E0D0E0C801013411051D
:100B500014F080E490E0C817D9073CF441E0BE01EE
:100B6000C7010E94430B2196F0CFDF91CF911F91D7
:100B70000F91FF90EF900895E2E5F1E0A0E0B8E07A
:100B800000800EBC8111012C1197A0FDFDCF0192B8
:100B9000B9F70DB4089580910E0681110DC082E061
:100BA00080930A0684E080930B0610920D06109243
:100BB0000C0681E080930E068AE096E008951F926D
:100BC0000F920FB60F9211248F939F938091E100A3
:100BD0009091E100937F9093E10083FF0FC010920A
:100BE000E90091E09093EB001092EC0092E3909377
:100BF000ED001092510198E09093F00082FF20C028
:100C000093E09093E9009091F200992319F09AE310
:100C10009093E80090910906992339F09091090684
:100C2000915090930906992389F19091500199234D
:100C300039F090915001915090935001992341F1D6
:100C400084FF10C08091E2008E7E81608093E2007C
:100C50008091E1008F7E8093E10080914F018E7E34
:100C6000806111C080FF16C08091E2008E7E80619D
:100C70008093E2008091E1008E7E8093E10080917C
:100C80004F018E7E816080934F0104C05D9ACDCF6D
:100C9000289AD6CF9F918F910F900FBE0F901F90E3
:100CA000189540917206509173062091700630910C
:100CB000710642175307B4F49091E8009570E1F380
:100CC0009091E80092FD19C08093F1008091720626
:100CD0009091730601968F739927892B19F48EEFE3
:100CE0008093E8008091720690917306019690932C
:100CF00073068093720681E0089580E00895DF9284
:100D0000EF92FF920F931F93CF93DF93D82E8A0118
:100D10007B01E40EF51EEB01CE15DF0571F0D7FE69
:100D200003C0FE01849101C088810E945106219672
:100D30008111F2CF8FEF9FEF01C0C801DF91CF91FA
:100D40001F910F91FF90EF90DF900895615030F068
:100D50002091F100FC0120830196F8CF289884E6C9
:100D60008093500108953FB7F89480916C0690915C
:100D70006D06A0916E06B0916F0626B5A89B05C0C2
:100D80002F3F19F00196A11DB11D3FBFBA2FA92F0A
:100D9000982F8827820F911DA11DB11DBC01CD0187
:100DA00042E0660F771F881F991F4A95D1F7089573
:100DB0000F931F93CF93DF931F92CDB7DEB782E0DF
:100DC000898342E450E069E671E080E80E947F0692
:100DD0000E94CB05DC0112960D911C911397011511
:100DE000110589F0D801ED91FC910280F381E02D8D
:100DF000BE016F5F7F4FC801099597FD04C0F801E0
:100E000000851185ECCF89810F90DF91CF911F91E3
:100E10000F9108951F920F920FB60F921124CF9247
:100E2000DF92EF92FF920F931F932F933F934F9375
:100E30005F936F937F938F939F93AF93BF93EF9342
:100E4000FF93CF93DF93CDB7DEB76C97DEBFCDBFF7
:100E50001092E9008091E80083FFFBC168E0CE01B9
:100E600045960E94A60682EF8093E8008D8987FF51
:100E700005C09091E80090FFFCCF03C09EEF9093D7
:100E8000E800982F907609F0C6C09E894F89588D4A
:100E90002F89F88C91110CC0803829F480916A0652
:100EA0008093F10002C01092F1001092F10045C150
:100EB000913051F4811141C14130510509F03DC1DA
:100EC00080916A068D7F0BC0933061F4811135C12A
:100ED0004130510509F031C180916A0682608093EA
:100EE0006A062BC1953049F48091E80080FFFCCF61
:100EF000822F80688093E30020C1963009F05EC0A5
:100F00000B8D1C8D22E01092E90010927306109256
:100F10007206F21232C010927106109270060E9490
:100F2000D80699E0BE016F5F7F4FDB01E92F1D926C
:100F3000EA95E9F79983FA8291E09E8390EA98878F
:100F40009AEF99872091720630917306275F3F4F81
:100F50003C832B838D831092E900109273061092CC
:100F60007206109371060093700649E050E080E02D
:100F70000E947F060E94D806E0C01093710600937D
:100F800070060E94CB05DC0112960D911C911397FF
:100F90000115110509F4BBC0D801ED91FC91048045
:100FA000F581E02DBE016B5E7F4FC801099500976A
:100FB00009F0C7C0F80100851185EACF973009F420
:100FC00045C1983021F481E08093F100B6C099309A
:100FD00009F0B3C0837009F039C1E7E3F1E081E0C3
:100FE00031E096E32081211109C08EE78093EA0069
:100FF0001092EA008F89809351019FC08093E9008D
:101000003093EB0021912093EC009093ED008F5FE3
:10101000873041F7EACF8B8D9C8D1092E9001092BA
:101020007306109272069093710680937006898DF4
:10103000811153C08E899D89913A49F4813209F01A
:1010400005C147E050E060E071E080E0BBC0913254
:1010500009F0FCC0833269F48F89988DA0E0B0E07C
:101060008093080190930901A0930A01B0930B01AA
:1010700064C0803269F48091E80082FFFCCF67E0B1
:1010800080E091E00E94A6068BEF8093E80055C0B7
:10109000823209F052C08F8980930701EEEFFFE79B
:1010A000859194918B3F9C4D19F0E0E0F8E002C0EF
:1010B000EEEFFAE08091000190910101A091020110
:1010C000B0910301803B9440A105B10509F09EC099
:1010D0008091070180FF79C099C00E94CB05FC0177
:1010E000028113810115110509F4B0C0D801ED91F9
:1010F000FC910190F081E02DBE016B5E7F4FC80135
:10110000099581111AC0F80100851185EBCFF1E036
:10111000FF1609F44EC0F3E0FF1298C08F898823B0
:1011200009F44AC0823089F440E860E18DEC91E036
:101130000E947812882309F489C08EEF8093E8001A
:1011400088C018161906CCF381C0813029F440E814
:101150006BE081EC91E0ECCF833009F077C00E9426
:10116000CB05DC011296ED90FC9013978E010F5F7A
:101170001F4F6801E114F10479F0D701ED91FC9162
:101180000680F781E02DB801C7010995080F111DF0
:10119000F701E084F184EECFD8011C92F6010190B2
:1011A0000020E9F73197BF016C197D0940E0C601C5
:1011B000BFCF6FEA71E002C06BEA71E0FB014491BE
:1011C00050E080E80E947F06B8CFEE3F2AE0F207A9
:1011D00051F0808191818737A7E79A0721F090939A
:1011E000FF0A8093FE0A87E797E7918380838091C7
:1011F0006000809374069BE088E10FB6F894A89590
:10120000809360000FBE9093600097CF80819181A2
:101210008737974709F091CFA89580916000886142
:10122000809360008091740680936000EE3FBAE086
:10123000FB0739F08091FE0A9091FF0A9183808329
:101240007CCF1092FF0A1092FE0A77CF81E2809342
:10125000EB006C960FB6F894DEBF0FBECDBFDF91EA
:10126000CF91FF91EF91BF91AF919F918F917F911E
:101270006F915F914F913F912F911F910F91FF902F
:10128000EF90DF90CF900F900FBE0F901F901895AA
:101290008F929F92AF92BF92CF92DF92EF92FF9286
:1012A0006B017C010E94B3064B015C01C114D104A7
:1012B000E104F104F1F00E94B306DC01CB018819CE
:1012C0009909AA09BB09883E9340A105B10570F3AD
:1012D00021E0C21AD108E108F10888EE880E83E007
:1012E000981EA11CB11CC114D104E104F10419F72A
:1012F000DDCFFF90EF90DF90CF90BF90AF909F90A9
:101300008F9008951F920F920FB60F9211242F9372
:101310003F938F939F93AF93BF9380916606909175
:101320006706A0916806B091690630916B0623E0CC
:10133000230F2D3720F40196A11DB11D05C026E80D
:10134000230F0296A11DB11D20936B0680936606A4
:1013500090936706A0936806B093690680916C0627
:1013600090916D06A0916E06B0916F060196A11D39
:10137000B11D80936C0690936D06A0936E06B0939A
:101380006F06BF91AF919F918F913F912F910F90D9
:101390000FBE0F901F901895CF92DF92EF92FF92A1
:1013A0000F931F93CF93DF936C017A018B01C0E001
:1013B000D0E0CE15DF0581F0D8016D918D01D60109
:1013C000ED91FC910190F081E02DC6010995892BEA
:1013D00011F02196EECF7E01C701DF91CF911F91D1
:1013E0000F91FF90EF90DF90CF9008958091560578
:1013F000E0915405F0915505882349F0CF010296FC
:101400009093550580935405859194910895CF014B
:10141000029690935505809354058081918108959B
:1014200080914E0108950895089580E090E0089518
:101430000E943B14E1E7F0E080818D7F8083109271
:10144000910046984798109277060895CF92DF92C0
:10145000EF92FF920F931F93CF93DF930E94F609B1
:10146000811520E8920751F4DF91CF911F910F91E0
:10147000FF90EF90DF90CF900C941A0A21E0209318
:101480007706813020E8920751F4809152059091BF
:10149000530590935505809354050E94F60997FDD6
:1014A00005C020917606222309F440C020917506DC
:1014B00021113CC021E020937806EC01DF772097D2
:1014C00069F481E08093790646983FE9C32E3FE0B6
:1014D000D32EE12CF12CCAEFD0E014C08E0120E015
:1014E00030E060E472E48FE090E0A90198010E948E
:1014F000AA1369017A0181E0C81AD108E108F1084C
:1015000010927906E091EF05F091F00509958111AF
:1015100003C081E08093790680917806882309F4DE
:101520003FC08091790681113BC003C010927806BC
:10153000C4CF469935C0479A0E94F609009771F0CA
:101540009C01DE010E94FE13DC01CB0129E0B59570
:10155000A795979587952A95D1F703C08FEF9FEFB1
:10156000DC01109290002AE020939100D092990023
:10157000C092980080937A0690937B06A0937C0695
:10158000B0937D0680917100826080937100DF913D
:10159000CF911F910F91FF90EF90DF90CF90089522
:1015A0004798CACF1F920F920FB60F9211242F9314
:1015B0003F934F935F936F937F938F939F93AF93DB
:1015C000BF93EF93FF9380917A0690917B06A09151
:1015D0007C06B0917D06892B8A2B8B2B81F1809123
:1015E000790681110BC098B180E4892788B9809170
:1015F0007806882319F088B1805888B980917A06D6
:1016000090917B06A0917C06B0917D061816190674
:101610001A061B06B4F480917A0690917B06A0917D
:101620007C06B0917D060197A109B10980937A06E5
:1016300090937B06A0937C06B0937D0602C00E9427
:10164000260AFF91EF91BF91AF919F918F917F916A
:101650006F915F914F913F912F910F900FBE0F901F
:101660001F9018952D9A0895BC0180E090E00C948D
:1016700048098FB18095807F669B88601C9B846041
:1016800008950C94941380389105B8F46034710572
:10169000A0F490E121E061FD24E060FD220F62FDF5
:1016A0002295687F969FD0011124A80FAE5ABE4F95
:1016B0008C91822B40FF82278C9308952F923F922A
:1016C0004F925F926F927F928F929F92AF92BF9252
:1016D000CF92DF92EF92FF920F931F93CF93DF93FE
:1016E000CDB7DEB727970FB6F894DEBF0FBECDBFDC
:1016F0009F838E836A30A1F4DC0155962C91559717
:1017000051968D919C915297B8E02B9F800D911D21
:101710001124EE81FF81928B818B108A1786ADC0D8
:101720006D3009F4AAC0AE81BF811F960D911C9146
:10173000509700381105BCF0EE81FF812589422FBA
:1017400050E087859089F6E02F9F800D911D112430
:10175000AE81BF8150969C938E931F9756962C9185
:10176000211175C08AC0EE81FF8181889288F0E4E2
:101770008F1691040CF7AE81BF8155963C90C8013D
:10178000B5E03B9E800D911D112418161906A4F694
:10179000432C512CC401E8E03E9E800D911D112484
:1017A000181619064CF6AE81BF815496BC91BC83C5
:1017B000EE81FF81F389FD8325E0629FB001112452
:1017C000CB0182529E4F3C011982F3012490F98192
:1017D000F53009F4212C640128E02B8320FE03C09E
:1017E0003D813A8302C08C818A839A81911104C021
:1017F000AC81BD81AB17B9F078018E2D801B8315AC
:1018000090F456018A2D8C19831548F44A81B5014C
:10181000C7010E94430BEFEFAE1ABE0AF3CFFFEFF2
:10182000EF1AFF0AEACF26942B8121502B83C40C98
:10183000D51C2111D3CF39813F5F3983040D151D8C
:10184000C30101963C01363009F0BFCF75CF6AEF76
:1018500064039001659F300D112420583F4F2817D5
:1018600039075CF4AE81BF81ED91FC911197019035
:10187000F081E02D6AE0CD01099581E090E02796A6
:101880000FB6F894DEBF0FBECDBFDF91CF911F9191
:101890000F91FF90EF90DF90CF90BF90AF909F900F
:1018A0008F907F906F905F904F903F902F90089512
:1018B000CF93DF9300D000D000D0CDB7DEB77894BF
:1018C00084B5826084BD84B5816084BD85B5826045
:1018D00085BD85B5816085BD80916E0081608093F6
:1018E0006E0010928100809181008260809381005F
:1018F000809181008160809381008091800081606F
:10190000809380008091910082608093910080910B
:10191000910081608093910080919000816080931C
:1019200090008091C10084608093C1008091C100CB
:1019300082608093C1008091C10081608093C1006A
:101940008091C30081608093C3008091C000826059
:101950008093C0008091C20081608093C20080911A
:101960007A00846080937A0080917A00826080930C
:101970007A0080917A00816080937A0080917A0069
:10198000806880937A001092510110926A0610923A
:101990004F018091D70081608093D70080EA8093C7
:1019A000D80089B5806189BD89B5826089BD09B4D7
:1019B00000FEFDCF61E070E080E090E00E94480909
:1019C0008091D8008F7C80618093D8008091E00066
:1019D000807F8093E0008091E1008E7E8093E10023
:1019E0008DE08093E200559A209A81EC80937C00F0
:1019F00085B1806F85B984B1877E84B984B1876EE3
:101A000084B95E9A5F988AB1806D8AB9769A6E9829
:101A100081B3806F81BB899880B38D7080BB80E576
:101A20008CBD81E08DBD85E090E00E94340B5F9A13
:101A300085E090E00E94340B5E985C98ECE5F1E064
:101A400084918EBD00000DB407FEFDCF319621E0DC
:101A5000E936F207A9F75C9A81E8809364008091E7
:101A6000650081608093650080E00E94BC050E9453
:101A7000390B87FF24C05C9885EA8EBD00000DB449
:101A800007FEFDCF5C9A2E982F982D9880916400C8
:101A900080628093640081E083BF889513BEFCCF91
:101AA0002D980E94390B8478843871F00E94390B8C
:101AB0008471843131F188EC90E00E94340B0E94F3
:101AC000390B82FDEDCF3AC00E94320B88EC90E0DA
:101AD0000E94340B2F9882E090E00E9494138F3F75
:101AE00029F06FEF82E090E00E949C1384EF91E078
:101AF0000E94340B2F9A0E94390B84788438D9F3D2
:101B0000D5CF0E94320B88EC90E00E94340B2E98C7
:101B100082E090E00E949413882329F060E082E044
:101B200090E00E949C1384EF91E00E94340B2E9A67
:101B30000E94390B84718431D9F3BDCF0E94320BDE
:101B400082E090E00E94410B882331F03E9A3F9A58
:101B500081E080934E0104C010924E013E983F9860
:101B600081E090E00E94410B382F3470D32E81FF2A
:101B700089C031112E98E0EF6E2E77247A9408E018
:101B800010E00E94390B86FF05C02E9A2F9A0E9402
:101B9000320B78C0DD2031F044E06416710411F49A
:101BA0002E9A2F9881E00E94BC05930177FE04C015
:101BB000222733272619370927703327C30177FCDB
:101BC000079673E0959587957A95E1F777FE05C0BE
:101BD0000197B801621B730B9B01AC015695542F02
:101BE0004427579547954E5A5E4F60E070E0480194
:101BF000821A930A8F3FEFEF9E074CF40196685AC2
:101C00007F4F40585F4F603B7105A1F71EC05A01DE
:101C1000F4E9AF0EB11C7A01A0E0B0E08F3FEFEF26
:101C20009E0709F4C1C3FD01E60FF71FE455FF4FFE
:101C3000E491F0E02F01022E01C0440C0A94EAF76F
:101C4000F701C4884C28448AAFC380E00E94BC05D9
:101C50008FE090E00E94340BFFEF6F1A7F0A29E1BA
:101C60006216710409F08DCFDD2011F02F9A2D98A6
:101C700080E991E00E94340B0E94320B82EF95E0E4
:101C80000E94AD1282E390E00E94340B0E94390B57
:101C90008111F8CF81E28093FD0582EF95E090936A
:101CA0005A058093590581EF95E090935C058093E8
:101CB0005B05E7E5F5E028E088EF9FEF16821782E5
:101CC0002487258711861086178616869387828734
:101CD000918B808B3C964FEC55E04E175F0771F768
:101CE00081E0809357058EE18093580585E090E070
:101CF0009093DE058093DD051092E0051092DF05DC
:101D000084E18093D90588E08093DA0586E390E04A
:101D10009093D6058093D5059093D8058093D705E9
:101D20001092DC051092DB058FB7F894409166069F
:101D30005091670660916806709169068FBF809127
:101D4000FE05942F981B8091FF05882329F090931E
:101D500000061092FF0520C32091FD05921748F45C
:101D60009F5F921708F018C381E083BF889513BE68
:101D700013C391E09093FF054093FE052091F90570
:101D80003091FA052F5F3F4F3093FA052093F90504
:101D9000E2E5F1E081118FEF00248193819381933B
:101DA00081930394D1F710920406109203061092C7
:101DB0000206109201068091DB059091DC050097E8
:101DC00009F07FC20E94390B86FF08C08091D505BB
:101DD0009091D6058C3691050CF407C30E94390BFF
:101DE00085FF08C08091D5059091D6051816190673
:101DF0000CF401C3D090DA058091D9050091D70584
:101E00001091D8056091D5057091D6057A836983C4
:101E10007B01E80EF11C89819A818E159F0554F48F
:101E20004D2DB8010E949605E981FA813196FA8319
:101E3000E983F1CFE0915905F0915A056091580579
:101E400070E0878190850E940D148C01892BB9F573
:101E50000E943D136B017C010E943D13E7E5F5E014
:101E60002681211131C02CE0209FA001219F500D1F
:101E70001124495A5A4F5A83498311E0FA011683B3
:101E80002CE630E040E050E00E94AA13DC01CB01D8
:101E90000A96A11DB11DE981FA8197878687C7013E
:101EA000B60124E630E040E050E00E94AA13E98148
:101EB000FA816531710514F0178301C0178227E597
:101EC00035E03E832D8307C00F5F1F4F3C960A30DD
:101ED000110531F6F4CFED81FE818681882309F466
:101EE000BDC120915705808991891C01220E311CAA
:101EF000318A208A8781068517859101245031090E
:101F00007901882309F455C049E0B901C8010E944C
:101F10009605A12CB12CCC24C394D12C34E0E32E13
:101F2000F12C48EF642E77247A945DEF452E5524EA
:101F30005A945FEFA51AB50A62E0C60ED11C4C0C8C
:101F40005D1C8E2D880F8F5F8B83482F41018E186B
:101F50009F08B401C501800F911F0E949605C10121
:101F60008A199B099A8389834C2DBC01C8018E0D67
:101F70009F1D0E9496054B81B401C8018A199B09D7
:101F80000E9496054C2D69817A81C8018E199F099E
:101F90000E949605AE14BF040CF081C057FCC9CF57
:101FA00031E0E31AF10842E0640E711C460C571C44
:101FB000C0CF41E0B1016C5F7F4FC8010E94430B6D
:101FC00041E0B701C8010E94430B41E0B101C801E3
:101FD00004960E94430B41E0B101C80104970E949E
:101FE000430B612C712C21E030E03C832B8384E097
:101FF000E82EF12C48EF5FEF5A8349839DEF492E7D
:1020000055245A947FEF671A770A8B819C81029638
:102010009C838B83480E591E4801860C971C41E017
:102020006101CE0CDF1CB601C4010E94430B5801B4
:10203000A618B70841E0B601C5010E94430B41E074
:102040006101CE18DF08B601C4010E94430B41E0D4
:10205000B601C5010E94430B6101C60CD71C41E0CB
:10206000B6015801AE0CBF1CC5010E94430B41E0F4
:10207000B6016801CE18DF08C6010E94430B41017A
:102080008618970841E0B401C5010E94430B41E066
:10209000B401C6010E94430B6E147F0444F0ED812D
:1020A000FE8180899189813491057CF466C057FC5A
:1020B000A9CF51E0E51AF10869817A816E5F7F4FFF
:1020C0007A836983460E571E9DCFED81FE8116826D
:1020D00028EF3FEF318B208B8781882309F44DC097
:1020E0000E941A0A8DE298E00E9478058091DD0531
:1020F0009091DE0501979093DE058093DD0518161B
:102100001906DCF10E941A0A809171008D7F80937C
:1021100071001092560541EE55E0509355054093DD
:10212000540550935305409352056DE47AE0709343
:10213000E2056093E10588E790E09093E4058093E1
:10214000E3058DE298E09093E6058093E505E8E7E6
:10215000F0E0F093E805E093E7057093EA056093FB
:10216000E905F093EC05E093EB050E94260A21E0D7
:1021700030E03093DC052093DB05ED81FE81268580
:1021800037852450310931872087808991890497C8
:10219000938782874091D5055091D6056091D905E6
:1021A000FA01E60FF11D2E173F070CF057C0ED8125
:1021B000FE816485260F311D421753070CF04EC077
:1021C0002091D7053091D8054091DA05B901640F07
:1021D000711D861797070CF041C04585840F911D2E
:1021E00028173907DCF5ED81FE818781882309F402
:1021F00014C10E941A0A8FE69FE00E947805209180
:10220000DF053091E0052F5F3F4F3093E0052093CD
:10221000DF0520FFF6C0C90164E170E00E942114CF
:10222000892B29F4809157058F5F80935705C90149
:102230006AE070E00E942114892B49F48091DD0549
:102240009091DE0501969093DE058093DD05ED818A
:10225000FE81168228EF3FEF318B208B4D815E810E
:10226000445F5F4F5E834D834F5C554009F033CE32
:102270008091590590915A05FC01108A1786128A9F
:10228000118A6DE371E00E94E0046091DD057091B8
:10229000DE058091590590915A050E94F5048091C0
:1022A000590590915A052CE330E0FC01308B2787CB
:1022B000128A118A6091DF057091E0050E94F50491
:1022C00068C0019709F065C08091590590915A0541
:1022D0002CE330E0FC01308B2787128A118A609151
:1022E000DF057091E0050E94F504809159059091F9
:1022F0005A0528E230E0FC01308B27872EE130E0E0
:10230000328B218B63E471E00E94E0040E94390B60
:1023100083FD04C00E94390B82FF3BC0E7E5F5E076
:1023200088E0168217828487858711861086178633
:10233000168628EF3FEF33872287318B208B3C9620
:102340004FEC55E04E175F0761F781E0809357052A
:102350008EE18093580585E090E09093DE058093B0
:10236000DD051092E0051092DF0584E18093D90528
:1023700088E08093DA0586E390E09093D605809319
:10238000D5059093D8058093D7051092DC0510925F
:10239000DB0580E00E94BC0580E090E0892B09F419
:1023A000C3CC0E940000C0CC2115310591F0FD0185
:1023B000E60FF71FE455FF4FE491F0E02F01082CE2
:1023C00002C0559447940A94E2F7F501C0804C2866
:1023D00040821196FFEFAF1ABF0AEFEFEE1AFE0A26
:1023E000A835B10509F01ACC09CC05969093D6050D
:1023F0008093D505F3CC05979093D6058093D505AA
:10240000F9CC8091580581508A3018F08093580596
:1024100002CF7AE070935805FECE0E941A0A8AEE27
:102420009AE00E9478058091DF059091E005019780
:1024300097FD05C09093E0058093DF0508CF1092CB
:10244000E0051092DF0503CFE6E1F6E01382128289
:1024500088EE93E0A0E0B0E084839583A683B78301
:1024600084E191E0918380838FEF9FEF958784874C
:10247000E7E5F5E081E080839EE191831092DC0541
:102480001092DB0525E030E03093DE052093DD057A
:102490001092E0051092DF05E2EFF5E01382128260
:1024A0001186128690E1938710861782158626E2A0
:1024B00031E03183208324E331E035832483108AA3
:1024C0001786128A118A838B148A858B168A80E17B
:1024D0009AE09093F0058093EF0580E090E8909368
:1024E000EE058093ED0546983E9A47983F9A0895E9
:1024F000DF92EF92FF920F931F93CF93DF93D82E2B
:10250000F92EE42E062F10E0C8010196880F0E94D4
:10251000510683E00E945106CD2DDF2D0C0F1D1FAB
:10252000C017D10789F0E7FE03C0FE01849101C006
:1025300088810E945106F82E80E00E9451068F216A
:1025400021968111EDCF01C081E0DF91CF911F91E4
:102550000F91FF90EF90DF9008950F931F93CF930B
:10256000DF938C0181E090E00E94410B80FF32C03C
:102570008AE090E00E94410B9FEF980F9E3F50F53C
:1025800022E330E0D80150963C932E931F9728E326
:1025900030E052963C932E935197CBE0D0E0D80197
:1025A000ED91FC910190F081E02D682FC801099513
:1025B000CE010E94410B2196C131D10581F780E007
:1025C0000E94BC0588EE93E0DF91CF911F910F919F
:1025D0000C94340BDF91CF911F910F9108950497C4
:1025E0000C94AD128F929F92AF92BF92CF92DF92D6
:1025F000EF92FF92CF93DF93EC01688179818A811A
:102600009B81611571058105910521F464E279EDE5
:102610008BE597E02DE133EF41E050E00E94AA13F3
:1026200049015A019B01AC01A7EAB1E40E94C91318
:102630006B017C01ACEEB4EFA50194010E94D713AD
:10264000DC01CB018C0D9D1DAE1DBF1DB7FF03C06E
:102650000197A109B04888839983AA83BB83BC01F1
:10266000CD019F77DF91CF91FF90EF90DF90CF90DA
:10267000BF90AF909F908F9008958F929F92AF924E
:10268000BF92CF92DF92EF92FF9260910C01709116
:102690000D0180910E0190910F0161157105810569
:1026A000910521F464E279ED8BE597E02DE133EFBC
:1026B00041E050E00E94AA1349015A019B01AC017C
:1026C000A7EAB1E40E94C9136B017C01ACEEB4EF40
:1026D000A50194010E94D713DC01CB018C0D9D1D37
:1026E000AE1DBF1DB7FF03C00197A109B04880937D
:1026F0000C0190930D01A0930E01B0930F01BC014A
:10270000CD019F77FF90EF90DF90CF90BF90AF907B
:102710009F908F90089560930C0170930D018093AA
:102720000E0190930F010895F999FECF92BD81BDDE
:10273000F89A992780B50895262FF999FECF1FBAE8
:1027400092BD81BD20BD0FB6F894FA9AF99A0FBEDA
:1027500001960895052E97FB1EF400940E94C11364
:1027600057FD07D00E94DC1307FC03D04EF40C94F5
:10277000C11350954095309521953F4F4F4F5F4F76
:10278000089590958095709561957F4F8F4F9F4FDD
:1027900008950E94FE13A59F900DB49F900DA49FD5
:1027A000800D911D11240895B7FF0C94C9130E9448
:1027B000C913821B930B0895A1E21A2EAA1BBB1BFF
:1027C000FD010DC0AA1FBB1FEE1FFF1FA217B307FD
:1027D000E407F50720F0A21BB30BE40BF50B661F13
:1027E000771F881F991F1A9469F7609570958095D7
:1027F00090959B01AC01BD01CF010895A29FB0014E
:10280000B39FC001A39F700D811D1124911DB29F24
:10281000700D811D1124911D0895AA1BBB1B51E150
:1028200007C0AA1FBB1FA617B70710F0A61BB70B40
:10283000881F991F5A95A9F780959095BC01CD01E5
:10284000089597FB072E16F4009407D077FD09D062
:102850000E940D1407FC05D03EF4909581959F4F82
:102860000895709561957F4F0895EE0FFF1F0590B5
:10287000F491E02D099481E090E0F8940C944014D8
:04288000F894FFCFFA
:1028840000E1000000000000FFFFFFFF0100000066
:1028940000000000D9035A04FA03EF034004FE03C6
:1028A4001C04000000005E0BCC09150A140AAD12CA
:1028B400FCFF0000EF1200C180810000004C69663B
:0E28C400653A0047616D65204F766572000031
:00000001FF
